S01F0000696F73747265616D5F75736172745F626172656D6574616C2E733337D7
S113000000100020110600009B3600009B36000003
S11300109B3600009B3600009B3600009B36000098
S11300209B3600009B3600009B3600009B36000088
S11300309B3600009B3600009B3600009B36000078
S11300409B3600009B3600009B3600009B36000068
S11300509B3600009B3600009B3600009B36000058
S11300609B3600009B3600009B3600009B36000048
S11300709B3600009B3600009B360000E90500001B
S1130080D13500009B3600009B3600009B360000F3
S11300909B360000D10C00009B3600009B3600000C
S11300A09B3600009B3600009B3600009B36000008
S11300B09B3600009B3600009B3600009B360000F8
S11300C09B3600009B3600009B3600009B360000E8
S11300D09B3600009B3600009B3600009B360000D8
S11300E09B3600009B3600009B3600009B360000C8
S11300F09B3600009B3600009B3600009B360000B8
S11301009B3600009B3600009B3600009B360000A7
S11301109B3600009B3600009B3600009B36000097
S11301209B3600009B3600009B3600009B36000087
S11301309B3600009B3600009B3600009B36000077
S11301400348044B834202D0034B03B11847704762
S1130150841000208410002000000000064B074992
S1130160C91A891048BF0131491003D0044B0BB19F
S113017001481847704700BF8410002084100020F5
S11301800000000010B5064C237843B9FFF7D8FFF0
S1130190044B13B10448AFF300800123237010BD56
S11301A0CC13002000000000F443000008B5054B08
S11301B01BB105490548AFF30080BDE80840FFF7CF
S11301C0CDBF00BF0000000084100020F4430000F5
S11301D0A3F5803A704700BF174B002B08BF134BA1
S11301E09D46FFF7F5FF00218B460F461348144A3E
S11301F0121A03F04EFE0E4B002B00D098470D4B05
S1130200002B00D098470020002104000D000D4869
S1130210002802D00C48AFF3008002F05FFB2000FE
S1130220290003F0B6F902F047FB00BF0000080004
S113023000000000000000000010002084100020D6
S1130240741400200000000000000000002370B5BA
S1130250224C1946206892B00222806802F0CAFE3D
S11302600023206802221946406802F0C3FE01AA56
S113027015461B4B03F118061446186859680833D1
S113028003C4B3422246F7D119889B782180A37016
S1130290144C1A222946206803F09AFA206801F0C7
S11302A0ADFF08AA1546104B03F120061446186842
S11302B05968083303C4B3422246F7D118689988B1
S11302C09B7926222060A180A3712946002003F097
S11302D07FFA064802F0E2FD12B070BD181000204B
S11302E0B140000000100020CC400000604000003D
S11302F038B5134C237823B1124802F01BFB0023BA
S1130300237002F00FFB024640B200280CDD0E4CB5
S11303100D28237801D00A2807D100250B490C4861
S1130320CD5402F007FB257038BD4E2B9FBF074903
S1130330CA5401332370BDE8384002F07BBC00BFCF
S11303407810002004410000CD130020CE130020BB
S1130350F340000030B50D4D89B001AC0FCD0FC492
S113036095E8070084E807004FF4A022084B0948E9
S1130370C3F834264FF4C022C3F82C26142201A952
S1130380C3F81C2601F01AFE09B030BD0841000074
S113039000C0035000C00550F0B595B001F03CFD1D
S11303A001280ED1194B04205A6E4FF480231849AA
S11303B0520358BF174A4B6601F51041086258BFF3
S11303C0536603F0C6F803F0CFF8FFF7C3FF124FEC
S11303D0502200210DF1010003F05BFD6E466D46D5
S11303E00024384603F0E9F90D2805F8010B02D082
S11303F00134502CF5D10025AC42E9D0384616F82A
S1130400011B03F0E0F90135F6E700BF008000505E
S11304100090005000A0005000C0055010B5234CBF
S113042001F00EF801F0FCF9236F23F0070343F009
S11304300303236703F08AF91D4B00209B6A9B0783
S11304405EBF01221B4B9A62D4F8203123F00303D0
S113045043F00203C4F82031D4F8243123F0070315
S113046043F00203C4F82431D4F8403123F00303E9
S113047043F00203C4F84031D4F8603123F003039D
S113048043F00203C4F86031D4F8403223F003038C
S113049043F00203C4F84032D4F8003223F00703D7
S11304A043F00203C4F8003210BD00BF00800050C6
S11304B000C0005000E0005008B501F0ADFC012878
S11304C00ED1104B04205A6E4FF480230E49520370
S11304D058BF0E4A4B6601F51041086258BF536677
S11304E001F06EFE03F081F801F0FAFD01F052FE16
S11304F001F018FEFFF792FF01F002FEBDE808408C
S113050003F06AB8008000500090005000A0005032
S113051030B5254D95B00DAC0FCD0FC495E807004F
S1130520032384E807008DF84D3029231F4A20490E
S1130530CDE902231F4B0E22CDE904134FF480733F
S113054000210DF12600069303F0A3FC4FF4A02034
S1130550194B0DAACDE907030F238DF8243010237E
S11305608DF82530154B16480A9350230B9340F20F
S11305700113ADF83030134B07A9009302AB02F01E
S1130580E1F8044618B188210F4803F09AF89DF861
S113059032304FF4E130002B0CBF0321002103F073
S11305A06DF8204615B030BD5441000000000650DF
S11305B00005000600080007240006501E14002051
S11305C0E81000209C1000202441000008B5FFF72B
S11305D09FFF28B1BDE80840B821024803F071B874
S11305E008BD00BF24410000014803F082B900BFE8
S11305F0E81000200348044A0449121A921003F038
S11306004DB800BF8C4400008C44000074140020DA
S113061008B500F02FF8FFF7EDFF124B12498B429B
S113062012D30020114B12498B4218D3FFF7D4FD8B
S1130630186850F82240586840F8224001329868FF
S11306408242F5D30C33EAE70022F8E71C6844F849
S1130650220001325C68A242F8D30833E4E70022A6
S1130660F8E700BFFC430000084400000844000011
S1130670084400004FF400414FF0FF30124B134A7E
S113068010B59A60D3F8882042F47002C3F8882029
S11306900F4A916601F1884101F5005210664FF648
S11306A0DF7050660220C3F8D000BFF34F8FBFF352
S11306B06F8F08244FF440330648C0F88041D3605C
S11306C004600B6110BD00BF00ED00E000000000FD
S11306D00090005000E100E0014B1868704700BF33
S11306E008100020084B1B6F03F00703022B04D0F3
S11306F0032B05D0012B05D0FEE7044B1868704787
S1130700034BFBE7034870470080005008100020AB
S113071010100020002D310108B5FFF7E3FF054B51
S11307201B6FC3F303330133B0FBF3F0024B1860C8
S113073008BD00BF0080005004100020004870472E
S113074000B4C404014B1868704700BF10100020A7
S1130750054B1860054B1B6F03F00703032B01D1F6
S1130760FFF7DABF704700BF101000200080005070
S113077000487047002D3101014B1868704700BFD5
S11307800C1000200346054A0549106803448B42B7
S11307908CBF4FF0FF301360704700BF141000206F
S11307A00080002008B501213A2000F08FFC0321CD
S11307B001230422002001F0A1F9002002F0FCFF33
S11307C00122214B4FF46070C3F8442400F0A8FCCC
S11307D01E4B00F5D520D3F8F02000F2FC4042F087
S11307E00102C3F8F020D3F8FC2042F08072C3F871
S11307F0FC20174AA3F55D431A60164B0222B0FB96
S1130800F3F0154B01381861C3F8F0204FF48072EF
S1130810C3F804234FF06043104A0020C3F8B02FFC
S11308200F4AC3F8802ED3F8002E42F48072C3F826
S1130830002EFF2283F82020D3F8002E22F48072A9
S1130840C3F8002E08BD00BF00D0035000ED00E047
S1130850FF030040F8590D00000004E055CEACC57C
S1130860090001004FF06043D3F8802E30B5D20761
S113087015D501240B4D8440D5F8FC2042F080723C
S1130880C5F8FC20D3F8002E2243C3F8002E53F8F9
S11308902020002AF0D003F82010002030BD1120C1
S11308A0FCE700BF00ED00E02DE9F04F9A46564BFF
S11308B085B01B7806460F461546DDF83C909DF83A
S11308C044B0DDF85080002B00F09780072A00F236
S11308D096800E9B002B00F09280B9F1000F00F07F
S11308E08E80129BB3F5006F00F38980012803D139
S11308F0109B002B00F08380444B03EB05131B7B00
S1130900002B7ED0424C10220021684603F0C1FA2D
S113091004EB45141022A7BB3946204603F0B9FA6C
S113092043F210036380BBF1000F03D1E37843F07B
S11309300303E370364A0E9B02EB451CCCE901939A
S1130940129B6901581E9DF84C30C0F30A0003F055
S113095003039B0643EA001E53582E48012E00EA67
S113096003004EEA0003CDF800A0535017D0B8F1AD
S1130970000F2ED19CF8023068F304138CF8023077
S113098027E00021204603F084FA4FF44473638087
S1130990BBF1000FCED1E37843F03003C9E7132352
S11309A00CF1100ECCF80C309CE80F008EE80F0010
S11309B06FF00301DCF81C20109B61F39F02012FF0
S11309C0CCF81C20CCF8143003D1CCF81890CCF817
S11309D0043000270D4A290102EB051342F8018077
S11309E0159A28465A60694622469F605E7301F054
S11309F055F9384605B0BDE8F08F0748FAE70748CF
S1130A00F8E70748F6E700BF6E1400200012002044
S1130A10001100200F80FFF3028000F0018000F03D
S1130A20078000F038B5124B05461B78DBB1E0B106
S1130A3002F0A8FE0F4A00231146147B54B92B6020
S1130A4001251A0101EB03131D738C5002F0A0FE63
S1130A50204638BD0133082B02F11002EDD102F01B
S1130A6097FE0548F5E70548F3E70548F1E700BFB9
S1130A706E14002000120020048000F0028000F0B8
S1130A80018000F038B502F07DFE002305460B4AD4
S1130A90147B6CB90133082B02F11002F8D101F078
S1130AA075F8074B28461C7002F072FE204603E0DE
S1130AB0284602F06DFE034838BD00BF0012002036
S1130AC06E140020058000F00D4B10B51B78044611
S1130AD093B1072812D802F055FE0A4B03EB041316
S1130AE01A7B2AB100241C7302F052FE204610BD6A
S1130AF002F04EFE0448FAE70448F8E70448F6E733
S1130B006E14002000120020068000F0028000F025
S1130B10018000F0154B13B51868002301908DF87F
S1130B20043002F02FFE124B1C7824B102F030FE88
S1130B30104802B010BD01221A7002F029FE0E4BBB
S1130B4001A81C731C7783F82C4083F83C4083F87D
S1130B504C4083F85C4083F86C4083F87C40082365
S1130B608DF8073001F050F82046E2E770410000AC
S1130B706E140020038000F0001200200A4A08B519
S1130B8012785AB107280BD8084A02EB00131B7BD2
S1130B9043B1002101F018F8002008BD0448FCE727
S1130BA00448FAE70448F8E76E1400200012002015
S1130BB0028000F0018000F0078000F00A4A08B5C6
S1130BC012785AB107280BD8084A02EB00131B7B92
S1130BD043B1012100F0F8FF002008BD0448FCE700
S1130BE00448FAE70448F8E76E14002000120020D5
S1130BF0028000F0018000F0078000F00A4A08B586
S1130C00127852B107280AD8084A02EB00131B7B5A
S1130C103BB101F0C3F8002008BD0548FCE70548D6
S1130C20FAE70548F8E700BF6E1400200012002020
S1130C30028000F0018000F0078000F00D4B1B786B
S1130C4093B1072812D889B10B4B03EB00131B7B1C
S1130C5073B10A4B1A6D01238340134214BF01235D
S1130C60002300200B707047054870470548704703
S1130C70054870476E140020001200200000045044
S1130C80028000F0018000F0078000F00B4A10B5EC
S1130C9012780C4662B107280CD859B1084A02EB05
S1130CA000131B7B43B101F095F82070002010BDA8
S1130CB00448FCE70448FAE70448F8E76E14002007
S1130CC000120020028000F0018000F0078000F094
S1130CD0184B2DE9F0411F6D5B6D1F4000D5FEE7F9
S1130CE001260025144CDFF85880374218D02368B9
S1130CF0C8F85060A3B1A168284601316268A160B8
S1130D009847637B012B0BD150B90C4B03EB451374
S1130D101A7B60F341021A731A7F60F341021A7757
S1130D200135082D4FEA460604F11004DDD1BDE873
S1130D30F08100BF000004500012002000110020C8
S1130D4000200450044BD3F88420D206FBD4D3F8FB
S1130D508400C0F3811070470040005038B5104B38
S1130D600546D3F820310C4603F00303022B0BD0C5
S1130D70032B0DD0012B0FD1FFF7AEFC052305B1DA
S1130D80286004B1236038BDFFF7DCFC0323F6E7D9
S1130D90FFF7EEFC0223F2E701230020EFE700BF98
S1130DA000800050F7B50027114B0197D3F880411C
S1130DB0064604F00304012C0D4608D0022C12D080
S1130DC041F2B1310B4802F07CFC3C4604E0394668
S1130DD001A8FFF7C3FF0F240EB1019B336005B1D7
S1130DE02C6003B0F0BDFFF7C3FC0190F4E700BF33
S1130DF0008000507441000038B51A4B0546D3F802
S1130E0024010C4600F00700062821D8DFE800F092
S1130E10280410181C0C1400FFF75EFC052305B110
S1130E20286004B1236038BDFFF756FC0623F6E7BB
S1130E30FFF788FC0323F2E7FFF784FC0423EEE7C3
S1130E40FFF796FC0223EAE702F033FC0723E6E708
S1130E50054840F6A87102F034FC00231846DEE78A
S1130E600123DCE7008000507441000038B5104BCA
S1130E700546D3F840310C4603F00303022B0BD094
S1130E80032B0DD0012B0FD102F015FC092305B162
S1130E90286004B1236038BDFFF76EFC0823F6E731
S1130EA002F00CFC0B23F2E701230020EFE700BF64
S1130EB00080005038B5164B0546D3F800020C46A6
S1130EC000F00700042819D8DFE800F020030B0F16
S1130ED0130002F0F0FB092305B1286004B123607C
S1130EE038BDFFF749FC0823F6E702F0E7FB0B23C4
S1130EF0F2E7FFF711FC0E23800AEDE7054841F203
S1130F006F4102F0DEFB00231846E5E70123E3E727
S1130F10008000507441000038B5124B0546D3F8E8
S1130F2040320C4603F00303022B0BD0032B0DD0ED
S1130F30012B0FD102F0BFFB092305B1286004B1D6
S1130F40236038BDFFF718FC0823F6E702F0B6FB70
S1130F500B23F2E7044841F2FA3102F0B2FB00231A
S1130F601846EAE7008000507441000038B5104B81
S1130F700546D3F860310C4603F00303022B0BD073
S1130F80032B0DD0012B0FD102F095FB092305B1E2
S1130F90286004B1236038BDFFF7EEFB0823F6E7B1
S1130FA002F08CFB0B23F2E701230020EFE700BFE4
S1130FB00080005010B40F4C0B46D4F8204204F0CB
S1130FC00304012C0ED0022C10D008B100210160C2
S1130FD00BB100221A6040F6D27107485DF8044B49
S1130FE002F06FBB5DF8044BFFF7B8BE5DF8044B2D
S1130FF0FFF73CBF0080005074410000B0F5207F33
S113100010B534D009D8B0F5007F2AD003D898B1F0
S1131010B0F5C07F10D0002421E0B0F5607FFAD194
S1131020154BD3F88030C3F301149B0617D5032C5A
S113103015D040F295210FE00F4B1C6F230B13F0DA
S11310400E0FC4F303340AD0072C08D00F2C06D09B
S1131050032C04D040F28521084802F032FB601CC6
S113106010BD054BD3F89040C4F30464F7E7024B7A
S11310701C6FC4F38024F2E7008000507441000028
S11310804FF400320E4B10B504469A660020FFF769
S1131090B5FF604341F671320A4C0B4BA04294BF3A
S11310A000200120D969DA639A6822F4401242EAE6
S11310B000529A60CA0344BF0022DA6310BD00BF25
S11310C000900050005A62020000035070B54609B7
S11310D004460D460ED140F22F310D4802F0F1FACC
S11310E0334604F01F047DB103F580530122A2406E
S11310F01A6070BD012E05D0064B074A022E18BF98
S11311001346EEE7054BECE703F50053EEE700BFAB
S11311107441000068800050608200506480005078
S1131120002330B5802885B00446019374D02AD8B2
S1131130002877D0A0F12004412C32D8412C30D89B
S1131140DFE804F070737073888888887373923F43
S1131150A8653F7373732F2F2F2F2F2F8D57737302
S113116073B2AD732F2F2F2F2F2F2F2F2F2F2F2F02
S11311702F702F707070882F2F2F2F2F2F2F2F2F1E
S11311802F2F2F2F7070B0F5806F63D024D8B0F557
S1131190007F55D00BD8B0F5807F6AD0B0F5C07F02
S11311A040D040F29441434802F08BFA37E0B0F566
S11311B0607F45D0F5D8B0F5207F36D0B0F5407FBC
S11311C0EFD1FFF7A9FA04464FF42070FFF716FF9A
S11311D0B4FBF0F4640831E0B0F5C06F5AD00DD818
S11311E0B0F5A06F3BD0B0F5B06F3DD0B0F5906FC7
S11311F0D7D1002101A8FFF7FFFD10E0B0F5E06FA3
S11312004DD0B0F5F06F4FD0B0F5D06FC9D10021FB
S113121001A8FFF74FFE02E0FFF764FA019001987E
S113122005B030BDFFF778FAF8E7FFF775FA044622
S11312304FF42070FFF7E2FEB4FBF0F40194EEE704
S1131240FFF750FA05462046FFF7D8FEB5FBF0F548
S11312500195E4E7002101A8FFF780FDDFE7002105
S113126001A8FFF7A7FEDAE7002101A8FFF79AFD1E
S1131270D5E702934FF0E0231B695B0705D5FFF721
S11312804BFA0290029B0193C9E703A902A8FFF756
S1131290EDFDF7E7002101A8FFF7E8FDBFE7002116
S11312A001A8FFF739FEBAE7002101A8FFF75EFEA7
S11312B0B5E700BF7441000008B58020FFF730FF98
S11312C0034B98429EBF4FF48032024B1A6708BD0D
S11312D0005A620200A000501FB50023B0F5807FC1
S11312E001937FD027D8382800F09C800BD824386D
S11312F0092810D809280ED8DFE800F06F6F6F6F47
S11313000D0D670D3685522867D007D83D283AD091
S11313103E2800F08C8040F2795152E08028FAD1C6
S1131320454B1B6F03F00703013B032B47D8DFE852
S113133003F044413F75B0F5D06F64D019D8B0F5CF
S1131340A06F6FD00AD8B0F5806F46D0B0F5906F1B
S1131350E1D1002001A9FFF74FFD3AE0B0F5B06FED
S113136033D0B0F5C06FD6D1002001A9FFF77EFDC0
S11313702FE0B0F5006FECD00AD8B0F5E06F56D08E
S1131380B0F5F06FC7D1002001A9FFF7EFFD20E011
S1131390B0F5086FBFD1284BD3F8003103F0030335
S11313A0022B35D0032B37D0012B39D1FFF7CAF9E3
S11313B0032300E0052301930BE00223FBE740F243
S11313C0C6411E4802F07DF903E0002001A9FFF7A1
S11313D0E9FC019805B05DF804FB002001A9FFF7C2
S11313E0BDFCF6E702934FF0E0231B695B0705D5CC
S11313F0FFF792F90C230393039BDCE703A902A8EC
S1131400FFF734FDF8E7002001A9FFF753FDE0E7FB
S1131410FFF7B2F90823CEE702F04BF90723CAE736
S11314200123C8E7002001A9FFF7C4FDD1E700208C
S113143001A9FFF771FDCCE7008000507441000062
S11314404FF40022034B5A66012203F580439A624B
S1131450704700BF00900050F8B5036804460F2B96
S113146004D940F66D316C4802F02BF963680F2BF8
S113147004D94FF43761684802F023F9A3680F2BAD
S113148004D940F67331644802F01BF9237B0F2B17
S113149004D940F67631604802F013F9637B0F2BD0
S11314A004D940F679315C4802F00BF9A37B3F2B59
S11314B004D940F67C31584802F003F9E37B3F2B12
S11314C004D940F67F31544802F0FBF82369032B1A
S11314D004D940F68231504802F0F3F86369032BD3
S11314E004D940F685314C4802F0EBF8E369012B4E
S11314F004D940F68831484802F0E3F88020FFF729
S1131500EBFE032800F087804FF40022434B0221B6
S11315105A6645F60E03424AC2F88030414B99623E
S1131520012103F580539962936DD903FCD4D4E966
S113153000131B0543EA0163E17B94F820500B433D
S1131540217BE77E43EA0143617B6D0143EA01337A
S1131550A17B43EA811313619169D4E904031B0657
S113156043EA806301F000410B43A17E94F8230019
S11315700B43217E43EA0143617E43EA01239361E5
S1131580136AE66923F00D0394F8221043EA8703F3
S1131590002E2DD11362966A94F8213045EA031384
S11315A026F033052B4343F0010393621E4D1C4B7D
S11315B09A6D35EA0202FBD102221A4DAA621A651B
S11315C09A6D5200FCD41A69A56822F4700242EAAA
S11315D005521A614FF00042124B9A6119B9022266
S11315E003F580539A6278B90122104B9A620BE09A
S11315F0334343F008031362936A23F03303034332
S11316002B4343EA4103936294F824301BB1044B07
S1131610074AC3F88020F8BD7441000000900050D0
S113162000C0005000D000500300014000E0005012
S1131630F1A7FFFF014B93F9000070476F140020DE
S1131640436810B5072B044604D940F6B3512A4821
S113165002F037F8A368032B04D940F6B5512648A5
S113166002F02FF82378032B04D940F6B75122480F
S113167002F027F894F90130002B04DA40F6B9514E
S11316801D4802F01EF84FF480011C4A637851662D
S11316904FF4D151022002F5B832516218494F2B50
S11316A048604FF0010028BF4F2301F58051486086
S11316B01169C903FCD4217843EA01235361D4E9B5
S11316C001131B0143EA0123617B0B43217B43EAA2
S11316D041039360E37BA17B1B0143EA4113617CDB
S11316E00B43217C43EA41035360A37C13B16FF4A1
S11316F0D153536210BD00BF7441000000900050EC
S113170000100250014B1880704700BF7610002073
S1131710014B1880704700BF74100020B0F5207F83
S113172010B565D00ED8B0F5007F4FD003D800B304
S1131730B0F5C07F1DD040F21231BDE810403448EE
S113174001F0BFBFB0F5607FF5D14C1E012C06D966
S1131750042904D04FF43D712D4801F0B2FF2D4A05
S1131760D2F8803023F0300343EA0413C2F8803007
S113177010BD4C1E012C0AD9102903D8264BCB408E
S1131780DB0704D440F2C721214801F09AFF01F09D
S1131790CAFF01F0D6FF4FF48031204B1D4A196770
S11317A0136F23F4704343EA04331367FEF7B4FF63
S11317B00446FFF7C7FAC0F10201204601F0BBFF5F
S11317C000F03EF8BDE81040FFF776BD4C1E1F2C1C
S11317D004D940F206310E4801F073FF0D4AD2F8E5
S11317E0903023F0F85343EA0463C2F89030BFE723
S11317F04C1E012C04D94FF44371054801F061FFDC
S1131800044A136F23F4806343EA84231367AFE726
S1131810744100000080005010010100009000504D
S113182008B50121022000F027F801F07CFF01F047
S113183088FF4FF48032014B1A6708BD00900050B6
S113184008B54FF4C070FFF76BFCBDE808400449CD
S1131850884294BF012102214FF42070FFF75EBF3C
S113186080F0FA02034A0179D36E23F030030B436C
S1131870D366704700400050F8B50446244BD3F8B3
S11318808420D006FBD4D3F88430C3F381139C4264
S11318903CD0FEF727FF012C05460BD11D4B984287
S11318A004D940F281711C4801F00BFF0121284644
S11318B001F041FF01F05FFF4FF00072174B074644
S11318C05A66204601F067FF4FF48063104E621E93
S11318D093403367736E9A0103D4D6F884309B0621
S11318E00AD5384601F04BFF022C0FD12846BDE83B
S11318F0F840002101F01FBFD6F884309906E9D5DD
S113190040F28F71044801F0DCFEE3E7F8BD00BF4C
S113191000400050005A6202A641000000600050DE
S113192010B50C4608B9FEF7DDFE074B21461B78BF
S11319303BB1064B984204D80120BDE81040FFF7A4
S11319409BBF0220F9E700BF70140020005A620216
S11319504FF0004238B5264B26495A6601224A60A8
S11319604AF6CD3103F50B235D6C1964154030BB89
S11319709968C9070BD4002401221F4B5A6015B182
S11319801E4B1F4A1A6401F007FF204638BD1A494E
S11319908A601C4AD96ACC0705D4904201D1072435
S11319A0EAE70130F6E79042E5D1F8E70132DC6A74
S11319B014F0080406D08A42F8D10724DFE7002295
S11319C01049F4E78A42F8D020220B4B0B495A62A3
S11319D00122A3F580539A6023460A4A486A800686
S11319E003D49342E9D00133F8E79342C7D1E4E743
S11319F00090005000500950006009500040095008
S1131A003254FFFF40420F004FF0004238B5174BED
S1131A10174C5A66012203F50C235A604AF6CD335B
S1131A20656C2364437893401343124AD363C378A9
S1131A308178A2689B0043EA011322F074021343E5
S1131A40A3600279837943EA022323614279C3794B
S1131A5043EA022363610078FFF77AFFEB0744BF90
S1131A60054B236401F098FE012038BD009000501E
S1131A7000400950004000503254FFFF032838B59D
S1131A8004460D4605D80B4B33F81030CB40DB072A
S1131A9004D440F22D41084801F013FE3022012302
S1131AA0544341F2100204F1A044AB4004F57034F5
S1131AB0A35038BD40420000D8410000032838B587
S1131AC004460D4605D80B4B33F81030CB40DB07EA
S1131AD004D440F2FE31084801F0F3FD3022012322
S1131AE0544342F2100204F1A044AB4004F57034B4
S1131AF0A35038BD40420000D84100000328F8B587
S1131B0004460D4616461F4605D81C4B33F81030C4
S1131B10CB40DB0704D44FF4B071194801F0D1FD78
S1131B2026B129462046CFB1FFF7A8FF04EB4403B2
S1131B30072D4FF00F014FEA031312D8A80006FA3D
S1131B4000F281400F48184401F027FEAEB929463F
S1131B50204677B1BDE8F840FFF790BFFFF7AEFF2E
S1131B60E4E7A5F10800800006FA00F28140064887
S1131B70E9E7BDE8F840FFF7A1BFF8BD4042000027
S1131B800C42000004C003500CC003504FF4001278
S1131B900B4B10B5C3F88020BFF34F8FBFF36F8F8B
S1131BA00024FF22074B21465C6520209A625C607A
S1131BB0FFF78CFA2146BDE810402120FFF786BAD2
S1131BC000E100E000000450072838B504460D4643
S1131BD003DD7721084801F074FD1F2C03D99121FE
S1131BE0064801F06EFD064A064B002D08BF134659
S1131BF00122A2401A6038BD484200007B42000026
S1131C00401004504020045010B5044618B99121E6
S1131C101F4801F056FD23781B0613F0604F03D0D4
S1131C2092211B4801F04DFDE3780F2B03D9A3212A
S1131C30174801F046FD01212020FFF747FA012152
S1131C402120FFF743FA0122124B5A602278120630
S1131C509A606178A27842EA01429A61FF229A620C
S1131C6000229A631A644FF000425A654FF0FF3223
S1131C704FF4001103F500531A65074AC2F88011A6
S1131C80E3781B01DBB282F81533116010BD00BF8D
S1131C90484200000000045000E100E02DE9F0415A
S1131CA00126C3B2072805460C46904606FA03F6F9
S1131CB003DDEC21354801F004FD1CB9ED21334866
S1131CC001F0FFFC236823F47C1323F00F031BB102
S1131CD0F0212E4801F0F5FCA37A1B0413F47C0FC9
S1131CE004D040F20911294801F0EBFCE37A1B050A
S1131CF013F07E6F04D040F20B11244801F0E1FC94
S1131D00237B5B0513F0FE5F04D040F20D111F48E6
S1131D1001F0D7FC1E4B1F4F1E65226803F50053CC
S1131D2043F82520302202FB0575637B2B66E37A9A
S1131D30A27A1B0543EA0243227B43EA4253EB6542
S1131D4028F003032B6701F01DFD7B6D33437B6596
S1131D50237A13B13B6C33433B64637A13B1BB6B9B
S1131D603343BB632279A37943EA0243084A93616C
S1131D706179E37943EA014307498B61054B566373
S1131D809E64BDE8F04101F003BD00BF484200007D
S1131D9000200450000004500010045010B5012429
S1131DA0C3B2072804FA03F404DD40F2971107488C
S1131DB001F087FC01F0E6FC054B5A6D22EA0402AF
S1131DC05A659C62BDE8104001F0E2BC4842000044
S1131DD00000045010B50124C3B2072804FA03F428
S1131DE004DD40F2B5110A4801F06BFC01F0CAFCB5
S1131DF0084BDA6A224208D15B6B9C430CBF012476
S1131E00002401F0C5FC204610BD0024F9E700BF02
S1131E104842000000000450024B1868C0F3074019
S1131E20704700BF0080E00FF8B507460C461D461A
S1131E3016464AB94FF4A171314801F042FC24B16D
S1131E40402D09D1062328E021B94FF42070FFF773
S1131E5067F90446402D42D0402D09D87DB1202D8C
S1131E6017D040F28911BDE8F840254801F029BC9B
S1131E70602DF6D1B6EB940F3CD804230DE0B6EBFD
S1131E80141F04D94FF4BA711D4801F01AFC102331
S1131E9003E0B6EBD40F1CD808235E43730803EBAE
S1131EA04413B3FBF6F3174E203BB6EBC30F4FEAD4
S1131EB0C30404D24FF4D071114801F002FCBB6892
S1131EC0344023F06003BB60BB681D43BD60FC610C
S1131ED0F8BD40F279110A4801F0F3FBDCE7062370
S1131EE0B4FBF3F3B342ADD24FF4BF71044801F035
S1131EF0E8FBA7E740F28311014801F0E2FBBCE7ED
S1131F00AE420000F8FF7F0038B50E4B04469842FD
S1131F100D4608D003F58043984204D04FF4337142
S1131F20094801F0CEFB012204F580535A60EB43CB
S1131F30934003F00A036361656115B904F5005425
S1131F40626038BD00C00550AE420000174B10B5AA
S1131F509842044608D003F58043984204D040F2E6
S1131F604241134801F0ADFB012204F580535A604D
S1131F7040F6AA6341F20502636100230D49A360A0
S1131F80E365E26004F500522361E361E364916474
S1131F900649A3658C4203D123650023636502E0EF
S1131FA005498C42F8D00123536010BD00C0055090
S1131FB0AE420000FFFF010000000650444B70B524
S1131FC0984204460D4608D003F58043984204D055
S1131FD040F2FD213F4801F074FB2046FFF7B6FFB5
S1131FE0012304F580567360AB7C1BB1A36843F0F6
S1131FF08043A360EB7C5BB1354A2B7D944245D191
S1132000A2F51032C2F88C31E36D43F08003E3652E
S11320102A8A6B7B20461343EA891343E3602B7BB4
S1132020D5E90112FFF700FF6B7D1BB1A36843F4F0
S11320308033A360AB7D1BB1A36843F40043A3606A
S1132040EB7D2A7E1B07120502F4E00203F0E04355
S11320501343A365697E1E4A8B1E012B1E4B1FD89A
S113206094421BD002F5804294420CBF01224FF0EF
S1132070FF3203EB4213022041F21C620329985001
S113208020D10423F3652B78636170BD134A944215
S113209004BFA2F52032C2F89C31B5E70022E8E77C
S11320A094420DD00D4A94420CBF01224FF0FF32EE
S11320B003EB4213022042F21C6201299850DFE72D
S11320C00022F5E7042204F50053DA65DBE700BFDC
S11320D000C00550AE42000000C00350000006508E
S11320E007B56B46054A1068516803C36846FFF795
S11320F08BFC002003B05DF804FB00BFE24200004B
S113210013B50024064A6846536F43F0010353672E
S113211000948DF80440FFF7A5FB204602B010BDE3
S11321200040005030B58BB06C46174D0FCD0FC436
S11321300FCD0FC495E8030084E80300134BD3F8D4
S11321404C2112031CD5A3F5FE431C884FF6FF73E4
S11321509C4208BF8C248DF81940FFF76BFA204489
S113216080F308008DF818000948FEF7F1FA684674
S1132170FFF772F93220FFF7CBFA00200BB030BD25
S1132180D3F85041E4B2E6E7EC4200000080E00FEF
S113219000F0490230B5094D87B001AC0FCD0FC432
S11321A02B6801A8236019238DF80530FFF748FA3E
S11321B03220FFF7A7FA002007B030BD1443000017
S11321C06FF00403502110B50A480B4C13F0800F34
S11321D003F1010207D12344402A83F80013134674
S11321E0F4D1002010BD03F00F03043B034419761F
S11321F01346EBE700ED00E000E100E010B5044613
S113220001F0B9FA024B1C6001F0B9FA002010BDCC
S11322108012002010B501F0AEFA034B1C6801F0E7
S1132220AEFA204610BD00BF8012002010B5002079
S1132230144601F0CDFA022804D018B1C321024893
S113224001F03FFA204610BD28430000302238B583
S1132250037A0446534303F1A04303F58023DD6E60
S1132260D0E9032313449D4201D8AA4204D94FF470
S11322703E71054801F025FAD4E9030303449D4265
S113228018BF284638BD00BF7943000030B5144656
S1132290054687B01046FFF7D9FF636902468342BB
S11322A03CBFD4E903315B181B1AABB11249049447
S11322B003910021CDE90131012300932846D4E99B
S11322C0001301F016FA20B14FF434710B4801F0F9
S11322D0F8F9002007B030BD0122627694F82D2071
S11322E0002AF6D084F835301321E3692046984754
S11322F02046636A9847ECE78D220000794300008A
S11323002DE9F04788B004460F461646984601F07A
S113231039FA8146002E00F0AD80237E03F0FF02DF
S1132320002B00F0E0802046FFF790FF63698246AF
S1132330984206D1637E23B940F27F316B4801F0A5
S1132340C0F96569AA459DBFD4E903329B185D1B9A
S1132350AAEB0505B54228BF354601F013FA94F8F7
S11323602D308246002B40F096802A46384661691B
S113237001F0F6FC63692E462B4463612CE060692E
S1132380037803F0FD01112940F08280216B88421B
S113239005D1A3F111014B424B4184F83430013E85
S11323A06369216B01328B4203F1010308BF23638C
S11323B063619542E3D1D4E90323216B1344994229
S11323C008BF2263216B8A4201D88B4204D84FF4A0
S11323D06D71464801F075F9D4E90323616913442A
S11323E0994208BF626161698A4201D88B4204D86C
S11323F04FF471713D4801F064F90023207A63764B
S1132400FEF7BCFB20B140F21131384801F059F914
S11324102046FFF71BFF636983423FD10023E56831
S1132420237694F82D30656103B125632046636AF1
S113243098472F4B049403930023029323692A465D
S113244001930123009363682168207A01F051F914
S113245020B140F22D31254801F033F9207AFEF7FE
S1132460ADFB20B140F25131204801F02AF9504629
S113247001F08EF94846C8F8006001F089F9D8F8EF
S11324800030002B0CBF1B20002008B0BDE8F087F3
S113249007F8013B84E72E4600228AE70123207ACD
S11324A023760DF11E01FEF7F1FB20B14FF45071BC
S11324B00E4801F006F99DF81E30207A002BCDD08D
S11324C00DF11F01FEF7BAFB20B140F24631074877
S11324D001F0F7F89DF81F10207A0029BED122469A
S11324E0FFF7D4FEBAE71646C4E700BF79430000FD
S11324F08D22000070B504460568FFF78BFE844208
S113250002D10020FFF77AFE95F93630002B11DB5B
S1132510012203F01F015B099B0003F160438A4021
S113252003F56143C3F88021C3F88020BFF34F8FC4
S1132530BFF36F8F287AFEF761FB20B14FF4ED7182
S1132540104801F0BEF8287AFEF7BEFA20B14FF425
S1132550EF710C4801F0B5F8FEF794FA38B10A4B64
S1132560984204D04FF4F171064801F0AAF8002310
S11325702846C4E90033C4E90433A360AB6ABDE868
S11325807040184779430000058000F02DE9F843B6
S113259004460D4690F82C80DFF8AC908E18AE42BD
S11325A028D094F82D3083B101F0ECF8237E07464F
S11325B01BBB226B63699A4204D040F2F91148466E
S11325C001F07FF8384601F0E3F894F83430002B3A
S11325D0E5D0B8F1000F06D02B780A2B03D10D21DA
S11325E02046E36998472046E36915F8011B98479C
S11325F00028D4D00020BDE8F8832046FFF726FE4B
S1132600E1680138884238BF2069D4F830C03CBF43
S113261000F1FF30401803469C450BD013F8012904
S1132620112A01D0132A07D1A2F111035A425A41A7
S113263084F834202063C5E7994282BF236903F1FB
S1132640FF335B18E8E700BF79430000F0B50C46A0
S11326500646154687B03822002120461F4601F061
S113266018FC95E8030000232A692376EB6884E8C4
S11326700300C4E904232A7DE36084F82C20AA7DA6
S11326802363012384F8343084F835300C9B84F8B8
S11326902D2023620D9BE76163620E9BA3622B7A5C
S11326A084F83630204B34607360204BB360204B89
S11326B03361204B7361204BF360FEF72BFA30B18A
S11326C01E4B984203D01024204607B0F0BD0021D1
S11326D004F10800FEF7A6F90028F4D10127184BED
S11326E00494CDE902032369009701936368E268C7
S11326F02168207A00F0FDFF04460028E3D195F913
S11327000830002B0BDB03F01F025B099B0003F175
S11327106043974003F56143C3F880711F603046FE
S1132720FFF76CFDD0E700BF8D25000001230000FA
S1132730573800005D380000F5240000038000F0E5
S11327408D2200002DE9F0411C46564B86B00293C1
S1132750554B0127019300230C9D00939046CDE92E
S113276003770A46514B2946FFF770FF06460028B7
S113277040F0908023683946AB6363683A20EB638A
S1132780637A85F84130237A85F84030E37A85F816
S11327904330A37A85F84230637B85F84530237B48
S11327A085F84430E37B85F84730A37B85F84630D1
S11327B0FEF78CFC3B460422617A207AFFF79EF9EF
S11327C03B460222E17AA07AFFF798F9394660681D
S11327D0FEF77CFC88F8006041462068FFF7EEFBBA
S11327E01422637C5B0103F1A04303F57033C3F847
S11327F01C26617A227A42EA0142C3F83426E17A3D
S1132800A27A42EA0142C3F82C2685F8486098F877
S11328101930032B44D8DFE803F03441021C0223AF
S113282085F8483000230422E17BA07BFFF766F99A
S1132830022741F21C61627C1D4B03EB421047509E
S1132840E07BA17BB13241EA004103EB4213996082
S113285017E0012785F8483002220023617B207BA2
S1132860FFF74CF9637B227B617C42EA0342114B04
S113287049015A500422236803F58053DA65002F76
S1132880D0D1AA6B0521D36C206843F00403D36430
S1132890FFF73AFB304606B0BDE8F0810027D9E7E0
S11328A02326F7E76F38000063380000E73800009C
S11328B000C0035024D6035008B5064B044613B198
S11328C00021AFF30080044B1B6803B198472046F6
S11328D000F0A9FF00000000BC13002070B50D4DEE
S11328E000260D4C641BA410A64209D10B4D0026F2
S11328F00B4C01F095FB641BA410A64205D170BDDE
S113290055F8043B01369847EEE755F8043B013689
S11329109847F2E77C1000207C1000207C100020F7
S113292080100020024B1868416801F087BA00BF8C
S1132930181000200FB407B5064904AB086853F813
S1132940042B8168019300F007F803B05DF804EBF1
S113295004B07047181000202DE9F04F0D469DB0CB
S113296014469846064618B1036A0BB900F02AFBD0
S11329706B6ED90705D4AB899A0502D4A86D01F012
S113298091FAAB891B0701D52B699BB929463046BF
S113299000F0FAF870B16B6EDC0704D54FF0FF302D
S11329A01DB0BDE8F08FAB899805F7D4A86D01F090
S11329B07AFAF3E70023CDF80C804FF00109DFF831
S11329C0B481099320238DF8293030238DF82A30DF
S11329D023469A4613F8012B0AB1252AF9D1BAEBFA
S11329E0040B0BD05B4622462946304600F0E8FF34
S11329F0013000F0A780099A5A4409929AF80030ED
S1132A00002B00F09F8000234FF0FF320AF1010AEF
S1132A10049307938DF853301A93CDE90523544654
S1132A200522544814F8011B01F08CF9049AD8B912
S1132A30D10644BF20238DF85330130744BF2B2302
S1132A408DF853309AF800302A2B15D0079A544643
S1132A5000204FF00A0C214611F8013B303B092BB2
S1132A604BD9B0B1079214E0A0EB0803A24609FACF
S1132A7003F313430493D2E7039B191D1B68002B34
S1132A800391BBBF5B4242F0020207930793B8BFB6
S1132A90049223782E2B0AD163782A2B32D1039BFC
S1132AA002341A1D1B6843EAE37303920593DFF8AB
S1132AB0D4A003222178504601F044F938B1A0EBA8
S1132AC00A004022049B013482401343049314F807
S1132AD0011B062228488DF8281001F033F900283C
S1132AE03FD0264B1BBB039B073323F0070308335C
S1132AF00393099B3B4409936AE70CFB02320C469F
S1132B000120A8E7002301344FF00A0C194605936D
S1132B10204610F8012B303A092A03D9002BC6D0DD
S1132B200591C4E70CFB012104460123F0E703AB44
S1132B302A4604A930460093114BAFF300800746A0
S1132B40781CD6D16B6ED90705D4AB899A0502D40B
S1132B50A86D01F0A8F9AB895B063FF51FAF099892
S1132B601EE703AB2A4604A930460093044B00F049
S1132B7069F8E4E7C0430000CA4300000000000015
S1132B80C1390000C643000038B5294B05460C4640
S1132B90186818B1036A0BB900F014FAB4F90C30D0
S1132BA0190722D4DA0607D409222A6043F0400325
S1132BB04FF0FF30A38133E0580712D5616B41B168
S1132BC004F14403994202D0284600F0D9FA0023C4
S1132BD06363A38923F02403A3810023636023692F
S1132BE02360A38943F00803A38123694BB9A38914
S1132BF003F42073B3F5007F03D02146284601F087
S1132C0078F9B4F90C3013F001020AD00022A26062
S1132C1062695242A261226942B913F08000C5D1AF
S1132C2038BD990758BF6269A260F4E70020F7E74E
S1132C3018100020024B01461868826801F095B90B
S1132C40181000202DE9FF470F7E914680460C4660
S1132C50782F9A460C9E01F1430207D8622F0AD8B6
S1132C60002F00F0DD80582F00F0C38004F14206ED
S1132C7084F842703AE0A7F16303152BF6D801A15A
S1132C8051F823F0DD2C0000F12C00006D2C000025
S1132C906D2C00006D2C00006D2C0000F12C000048
S1132CA06D2C00006D2C00006D2C00006D2C0000BC
S1132CB0072E00007F2D0000BF2D00006D2C0000AA
S1132CC06D2C0000292E00006D2C00007F2D0000CB
S1132CD06D2C00006D2C0000C72D000033681A1DF8
S1132CE01B68326004F1420684F842300123A8E0F4
S1132CF031682368081D30601E0601D50D6803E0A5
S1132D005D06FBD5B1F90050002D616878DA2D20FD
S1132D100029A16084F843002DDA6D425D480A233E
S1132D201646B5FBF3F103FB1157C75D06F8017DA9
S1132D302F460D46BB42F4D9082B0BD12368DF077D
S1132D4008D5236961689942DEBF302306F8013C47
S1132D5006F1FF36921B22614B4603AA21464046E8
S1132D60CDF800A000F07CFE01306FD14FF0FF30B1
S1132D7004B0BDE8F08723F004032360CDE72168A5
S1132D803368080653F8045B02D4490648BFADB261
S1132D906F2F33603F4814BF0A230823002184F8AF
S1132DA043106668002EA660BADB216821F0040196
S1132DB02160002DB4D1002EB2D11646BCE72368A1
S1132DC043F02003236078273348236884F8457050
S1132DD01F06316851F8045B02D45F0648BFADB2E8
S1132DE03160D90744BF43F0200323601DB1102391
S1132DF0D4E72848E9E7236823F020032360F6E7B3
S1132E0024480A23CDE733682568181D61693060BA
S1132E102E061B6801D5196002E06806FBD51980EF
S1132E2000231646236197E7336800211A1D326098
S1132E301E686268304600F085FF08B1801B606040
S1132E4063682361002384F8433085E723693246AD
S1132E5049464046D047013088D023689B0714D4A4
S1132E60E068039B9842B8BF184681E701233246C5
S1132E7049464046D04701303FF478AF0135E36816
S1132E8003995B1AAB42F1DCEAE7002504F1190669
S1132E90F5E700BFD1430000E2430000024B0146C6
S1132EA0186800F04FBE00BF18100020002310B5B2
S1132EB004468360818119464366C2810822836186
S1132EC0C0E90033C0E904335C3000F0E2FF0D4B8D
S1132ED0246263620C4BA3620C4BE3620C4B2363CE
S1132EE00C4B9C4206D003F16802944202D0D033CA
S1132EF09C4205D104F15800BDE8104000F0D1BF58
S1132F0010BD00BF7B3D00009D3D0000D53D00008D
S1132F10F93D000084120020024A0349034800F0EE
S1132F206FBF00BF68100020F53C00001C1000209B
S1132F3041680C4B994210B5044601D000F0DAFE0A
S1132F40A168094B994202D0204600F0D3FEE16803
S1132F50064B994204D02046BDE8104000F0CABE9A
S1132F6010BD00BF84120020EC1200205413002076
S1132F7010B50B4B04210B4C0B4A20461A6000225F
S1132F80FFF794FF04F1680001220921FFF78EFF87
S1132F9004F1D00002221221BDE81040FFF786BFE1
S1132FA0BC13002084120020192F0000014800F0F7
S1132FB079BF00BF72140020014800F074BF00BF45
S1132FC07214002010B50446FFF7F0FF236A1BB10A
S1132FD0BDE81040FFF7F0BF044B2362044B1B68AD
S1132FE0002BF5D1FFF7C4FFF2E700BF312F00003B
S1132FF0BC1300202DE9F7431D46574B04460E46EB
S11330001F68904627B13B6A13B93846FFF7DAFFC9
S1133010B8F1020F06D0B8F1010F00F29980002D2B
S1133020C0F29680636ED90705D4A3899A0502D4A9
S1133030A06D00F037FF2146384600F05BFE616B5F
S113304041B104F14403994202D0384600F098F8A3
S1133050002363630023A3616360A3891B0603D574
S11330602169384600F08CF8A389B8F1020F23F4E3
S11330704A6323F00303A38160D001AB6A4621466F
S1133080384600F011FFA3891843A0812DBB009D91
S1133090284600F0CFF80646002851D1DDF800900C
S11330A0A9453FD14FF0FF35B4F90C3043F002028B
S11330B0A2810022A26004F147022260226101225F
S11330C06261626ED60704D4980502D4A06D00F044
S11330D0EAFE284603B0BDE8F083002ED8D03B6A50
S11330E013B93846FFF76EFFB8F1010F266002BF2F
S11330F0A38943F00103A381B4F90C3013F008024F
S1133100C4E904651ED0D90745BF00226D42A560FD
S1133110A26048BFA561626ED20701D49B0513D596
S11331200025D6E7484600F085F806460028B9D0C1
S1133130A3894D4643F08003A381D0E70025B3E77C
S1133140A946F5E7A260E6E7A06D00F0ACFEE7E76C
S11331504FF0FF35BDE700BF1810002038B5044616
S1133160064D0846114600222A601A46FFF75EF80B
S1133170431C02D12B6803B1236038BDC013002067
S113318038B50546002941D051F8043C0C1F002BEA
S1133190B8BFE41800F036F91D4A136833B9636008
S11331A014602846BDE8384000F032B9A34208D97B
S11331B0206821188B4201BF19685B6809182160D7
S11331C0EDE71A465B680BB1A342FAD911685018AF
S11331D0A0420BD120680144501811608342E0D111
S11331E018685B68084453601060DAE702D90C235E
S11331F02B60D6E7206821188B4202BF19685B68F0
S11332000918636008BF21605460CAE738BD00BF75
S1133210C813002038B50023054D044608462B602A
S113322000F0FFFA431C02D12B6803B1236038BDC0
S1133230C0130020024B0146186800F025B800BFF7
S11332401810002070B50F4E0C460546316811B9B0
S113325000F0E4F830602146284600F0DFF8431C13
S113326003D14FF0FF34204670BDC41C24F0030486
S1133270A042F8D0211A284600F0D0F80130F2D14B
S1133280EFE700BFC41300202DE9F041CD1C064632
S113329025F0030508350C2D38BF0C25002D01DB66
S11332A0A94204D90C2333600020BDE8F081314FDA
S11332B000F0A8F83B681C4644BB29463046FFF79B
S11332C0C1FF431C044650D13C682146002941D12A
S11332D0002C44D02368304604EB030800F09EF829
S11332E080453CD1216830466D1A2946FFF7AAFF74
S11332F0013034D023682B4423603B68002B36D044
S11333005A68A24229D100225A600EE02268521B58
S11333101DD40B2A16D96119A342256018BF596020
S1133320636808BF396062514B60304600F070F842
S113333004F10B00231D20F00700C21AB5D01B1A9C
S1133340A350B2E7A3426268DED13A60EDE72346B8
S11333506468B1E70C464968B8E71346CEE70C2326
S11333603046336000F054F89EE70560DDE75B60AB
S1133370FFDE00BFC813002038B50023064D044605
S1133380084611462B6000F04FFA431C02D12B680B
S113339003B1236038BD00BFC013002038B500233B
S11333A0054D044608462B6000F043FA431C02D145
S11333B02B6803B1236038BDC013002038B5044620
S11333C0064D0846114600222A601A4600F033FAD8
S11333D0431C02D12B6803B1236038BDC013002005
S11333E038B50446064D0846114600222A601A469E
S11333F000F023FA431C02D12B6803B1236038BDCB
S1133400C0130020014800F04DBD00BF711400201E
S1133410014800F048BD00BF7114002038B50023F6
S1133420054D044608462B60FDF7ACF9431C02D158
S11334302B6803B1236038BDC01300208B8903F0CF
S11334400903092B03D1034B186800F053BC002077
S1133450704700BF1810002070B50C46054618B11F
S1133460036A0BB9FFF7AEFD00236360B4F90C30B7
S11334709E0608D4580745D4D90607D409222A60E1
S113348043F04003A3814FF0FF3070BD1A070BD502
S11334902146284600F02EFC0028F4D1A389A06020
S11334A023F00803A061A381A38943F00403A3814B
S11334B023691BB92146284600F01BFDB4F90C60B2
S11334C0B3070FD001231B4A1B491C48A38100F0FA
S11334D097FCA68106F00906092E03D12146284649
S11334E000F085FB22692846666A6369216A2260C6
S11334F0B0470028606017DCB4F90C3016D143F0F3
S11335002003BFE7616B0029D2D004F14403994240
S113351002D02846FFF734FE00236363236C636004
S1133520002BC5D0E36B23600020AEE7002262606D
S1133530A6E700BF681000203D3400001C100020E6
S113354008B5FCF783FEBDE80840FCF725BFFCF78F
S1133550CFBE08B501213A20FDF7B8FDBDE808400B
S113356001212820FDF7B2BD10B501230422052155
S11335700020FEF7C3FA0023012218460621FEF7B5
S1133580BDFABDE810400123042218461146FEF797
S1133590B5BA08B500F0E5F9FFF7D2FF00F0EEF98F
S11335A0FFF7D5FFFAE7704708B5FDF7FBF8BDE86C
S11335B0084000F05AB808B500F00CF8BDE808401F
S11335C0FDF704B8704770477047704770477047FD
S11335D0FDF70AB80F20704708B501213A20FDF71E
S11335E075FDBDE80840FFF7DEBF01213A20FDF775
S11335F06DBD70B5002506462C46052C20D8DFE8A5
S113360004F003070B0F13175B210820FDF72AF9B9
S11336100C210820FDF726F9D1210820FDF722F915
S113362080210820FDF71EF900210820FDF71AF972
S11336306C1C2946E4B208202546FDF713F906243C
S1133640A4F10E03012B05D85A210820FDF70AF92D
S11336500134D2E7102C05D1BDE870405D2108206B
S1133660FDF700B9B31F195DEFE708B5082000F0B6
S113367029F8BDE80840082000F02FB8012307B559
S113368020F07F4040EA8170019068468DF8003058
S1133690FFF7AFFF03B05DF804FBFEE710B53AB1E6
S11336A0002350F8234041F8234001339A42F8D1D3
S11336B010BD002070474FF4004070474FF47A70FB
S11336C07047FEE74FF060420123D2F8001E8340AA
S11336D00B430020C2F8003E70474FF060410122C6
S11336E0D1F8003E824023EA02030020C1F8003EE4
S11336F0704710B588B004460E98009207900D9854
S1133700224606909DF8300005900B9804909DF891
S1133710280003900020CDE901300B460121FDF77C
S1133720C3F808B010BD08B5FDF708F8BDE80840B7
S11337300021FDF7A5BC0029CCBF01210021FDF724
S11337409FBC02214FF42070FDF7E8BF10B5FCF7D1
S1133750E3FF0446FDF7F6FAC0F102012046FFF745
S1133760EAFF01210020FEF7DBF8FEF769F8BDE867
S11337701040FDF7A1BDEFF3108072B6704700B999
S113378062B67047EFF31180302383F311887047DA
S113379080F3118870477047704770B5054614462A
S11337A00E46FFF7E8FF2B685C4034405C402C6019
S11337B0BDE87040FFF7E3BF704783691B06FCD583
S11337C0406AC0B2704783695B06FCD5C163704729
S11337D070B50C46154610B9FEF71CFD38B14368A8
S11337E02BB12A462146BDE87040006818472320C3
S11337F070BDF7B50D4616461C4648B103B901AC79
S113380087685FB12346324629460068B84706E018
S1133810FEF700FD04B901AC0028F1D1232003B068
S1133820F0BD00207047FEE74FF4005300204B60CA
S11338307047012070470020704707B5002001AB96
S11338400190FFF7D6FF0198002808BF4FF0FF3022
S113385003B05DF804FB80F82C10704790F82C003E
S11338607047826BD36C43F00403D364704710B584
S11338700446826B93695906FCD5002394F84110E1
S11338801A4694F84000FEF739F9002394F84310DF
S11338901A4694F84200FEF731F994F84830DA07F2
S11338A007D5002394F845101A4694F84400FEF70F
S11338B025F994F848309B0707D5002394F847105E
S11338C01A4694F84600FEF719F9A06B0021C36C60
S11338D023F00403C364FEF717FBE06B0021FDF73C
S11338E0F5FB002010BD08B5806BFFF76CFF0020CE
S11338F008BD38B50468237EA06B33B9C36C23F0CC
S11339000403C3640123237638BD637E23B394F890
S11339102D300BB30025132184F83550FFF753FFE6
S1133920A36BDA6C42F00402DA645B6ADBB2112B3B
S11339300DD1012384F834303022237A534303F128
S1133940A04303F58023DB6E013B2363DCE7132BE9
S1133950DAD184F83450EFE7C36C23F00403C36472
S1133960D2E708B5FCF7A8FDFFF71EFEFFF723FE1C
S1133970FFF728FEBDE80840FFF725BE08B5FFF7AE
S113398023FEFFF722FEFFF721FEBDE80840FFF704
S11339901EBE9368013B002B936010B408DA94694F
S11339A0A34201DB0A2903D15DF8044B00F01AB8E5
S11339B01368581C1060084619705DF8044B704772
S11339C0F8B506460F461446D518AC4201D100207E
S11339D007E03A4614F8011B3046FFF7DAFF431CB0
S11339E0F3D1F8BDF8B50E461446054618B1036A7E
S11339F00BB9FFF7E7FAA369A360A3891A0701D5F6
S1133A00236943B921462846FFF7BEF818B14FF0A1
S1133A10FF373846F8BD2368F6B222693746981A4C
S1133A206369834205DC2146284600F063F90028D7
S1133A30EDD1A368013BA36023685A1C22601E7069
S1133A40431C62699A4204D0A389DB07E1D50A2E9C
S1133A50DFD12146284600F04DF90028D9D0D6E719
S1133A602DE9F047164698468A6807460B690C46C6
S1133A70DDF820909342B8BF1346336091F8432099
S1133A800AB1013333602368990642BF33680233B5
S1133A903360256815F0060506D104F1190AE368B8
S1133AA032689B1AAB422BDC94F843302268003B0B
S1133AB018BF0123920630D404F14302414638462C
S1133AC0C847013023D023681A3454F80A2C03F071
S1133AD00603042B0ABF54F80E5C002533684FF02C
S1133AE0000608BFED1A54F8123C08BF25EAE57534
S1133AF09342C4BF9B1AED18B5421AD1002008E0C6
S1133B000123524641463846C847013003D14FF09D
S1133B10FF30BDE8F0870135C1E7E1185A1C3020B9
S1133B200233224481F8430094F8451082F843108C
S1133B30C2E70123224641463846C8470130E6D051
S1133B400136D9E7036A70B505460E4684680BB999
S1133B50FFF738FA636EDB0705D4A389980502D40E
S1133B60A06D00F09FF9A389190702D52369002BE2
S1133B7035D121462846FFF707F880B34FF0FF35CB
S1133B80636EDA0705D4A3899B0502D4A06D00F007
S1133B908AF9284670BD002B15DB23685A1C226065
S1133BA01970A36816F8011F013BA3600029F2D124
S1133BB0002B16DA22460A212846FFF713FF0130AC
S1133BC0DCD00A25DCE7A2699A4201DC0A29E4D1A7
S1133BD022462846FFF706FF0130E2D1CEE7013E38
S1133BE0DFE723685A1C22600A221A70E9E7B1F958
S1133BF00C202DE9F041170705460C4656D44B68B6
S1133C00002B02DC0B6C002B3DDDE66A002E3AD063
S1133C10002312F480522F68216A2B6025D0626D34
S1133C20A389580705D56368D21A636B0BB1236C5B
S1133C30D21A216A0023E66A2846B047411C24D0E0
S1133C400023636023692360A389DA0400D56065D7
S1133C50616B2F60B9B104F14403994202D0284644
S1133C60FFF78EFA002363630DE001232846B04773
S1133C70461C0246D4D12B68002BD1D01D2B01D079
S1133C80162B2AD12F6000202EE02A68B4F90C30BC
S1133C9042B11D2A01D0162A21D100236360236971
S1133CA02360D5E7626022692260CEE70F69002FA6
S1133CB0E9D093070E680F600CBF4B690023A6EB95
S1133CC007088B60B8F1000FDDDD43463A46216AF0
S1133CD02846A66AB047002808DCB4F90C3043F043
S1133CE040034FF0FF30A381BDE8F0810744A8EB07
S1133CF00008E7E738B50B6905460C4613B90025FB
S1133D00284638BD18B1036A0BB9FFF75BF9B4F95B
S1133D100C30002BF3D0626ED00704D4990502D482
S1133D20A06D00F0BFF828462146FFF760FF636EE0
S1133D300546DA07E4D4A3899B05E1D4A06D00F01D
S1133D40B2F8DDE7C9B20346024410B593421846FF
S1133D5001D1002003E0047801338C42F6D110BD78
S1133D600A44431E914200D1704710B511F8014B2B
S1133D70914203F8014FF9D110BD10B50C46B1F9C9
S1133D800E10FFF72DFB0028ABBF636DA3891B1832
S1133D9023F48053ACBF6365A38110BD2DE9F041CA
S1133DA01F468B8905460C46DB05164605D50223BE
S1133DB00022B1F90E10FFF701FBA3893246B4F9D2
S1133DC00E10284623F48053A3813B46BDE8F041FE
S1133DD0FFF7C4B910B50C46B1F90E10FFF7EEFAAF
S1133DE0431CA38915BF606523F4805343F48053B7
S1133DF0A38118BFA38110BDB1F90E10FFF70ABA51
S1133E002DE9F8430746884614460026D4E901956F
S1133E10B9F1010905D52468002CF7D13046BDE875
S1133E20F883AB89012B07D9B5F90E30013303D0E0
S1133E3029463846C04706436835E9E738B50C4695
S1133E40054618B1036A0BB9FFF7BCF8636ED807CF
S1133E5005D4A389990502D4A06D00F023F8636802
S1133E60013B002B63600FDA2846214600F0B1F8CD
S1133E700546636EDA0705D4A3899B0502D4A06DB9
S1133E8000F011F8284638BD23685A1C22601D78BA
S1133E90EFE702440346934200D1704703F8011B45
S1133EA0F9E770477047704770B50C46B1F90E10CA
S1133EB096B0154600291E460CDAA389002113F09A
S1133EC0800F14BF40234FF48063002031602B60C7
S1133ED016B070BD6A46FFF74FFA0028EDDB019972
S1133EE001F47041A1F50053594259414FF48063E4
S1133EF0EBE78B89F7B59D0706460C4607D504F119
S1133F004703236023610123636103B0F0BD01AB68
S1133F106A46FFF7C9FF009F054630463946FFF75A
S1133F20B3F948B9B4F90C309A05EED423F003037D
S1133F3043F00203A381E2E7A389206043F08003F6
S1133F40A381019BC4E904075BB1B4F90E103046A8
S1133F50FFF724FA28B1A38923F0030343F00103F4
S1133F60A381A3891D43A581CFE770B50D461446EF
S1133F70064618B1036A0BB9FFF724F8636ED80735
S1133F8005D4A389990502D4A06DFFF78BFFA3681C
S1133F90013B002BA36005DAA269934212DBEBB26A
S1133FA00A2B0FD023685A1C22601D70EDB2636E79
S1133FB0DA0705D4A3899B0502D4A06DFFF773FF2C
S1133FC0284670BD294622463046FFF70BFD0546BC
S1133FD0EDE738B50C46054618B1036A0BB9FEF790
S1133FE0F1FF21462846FFF737FA38B96368013BE9
S1133FF0636023685A1C2260187838BD4FF0FF3084
S1134000FBE70000000000000000000000000000CA
S1134010000000000000000000000000000000009C
S1134020F8B500BFF8BC08BC9E467047F8B500BFA1
S1134030F8BC08BC9E467047000000000000000069
S1134040000000000000000000000000000000006C
S1134050000000000000000000000000000000005C
S11340605072696E74662075736573207468652078
S113407064656661756C742073747265616D2C205F
S11340806173206C6F6E6720617320696F73747243
S113409065616D5F72657461726765745F73746482
S11340A0696F20697320696E636C756465642E0D95
S11340B000494F73747265616D2055534152542009
S11340C06578616D706C650D0A0D0A00546869733A
S11340D0206973206F7574707574206F6E20746816
S11340E0652064656661756C742073747265616DB6
S11340F00D0A000D0A596F752077726F74653A20A6
S113410025730D0A3E200000050000000000000099
S113411000C20100000500000010000000000000C3
S1134120000000002E2E2F6175746F67656E2F736B
S11341306C5F696F73747265616D5F696E69745FDA
S113414075736172745F696E7374616E6365732EE7
S113415063000000050000000000000000C2010030
S11341600005000000100000000000000000000036
S11341701E0000032F686F6D652F61617469722FD3
S11341806765636B6F5F73646B2F706C6174666FCC
S1134190726D2F656D6C69622F7372632F656D5F2D
S11341A0636D752E63002F686F6D652F616174698F
S11341B0722F6765636B6F5F73646B2F706C6174D0
S11341C0666F726D2F656D6C69622F7372632F65F4
S11341D06D5F656D752E63002F686F6D652F61616E
S11341E07469722F6765636B6F5F73646B2F2F70D5
S11341F06C6174666F726D2F656D6C69622F696E88
S1134200632F656D5F6770696F2E68002F686F6D2F
S1134210652F61617469722F6765636B6F5F736487
S11342206B2F706C6174666F726D2F656D6C696253
S11342302F7372632F656D5F6770696F2E63000063
S1134240FF011F00FF000C002F686F6D652F616177
S11342507469722F6765636B6F5F73646B2F706C27
S11342606174666F726D2F656D6C69622F73726312
S11342702F656D5F6C646D612E63002F686F6D65D3
S11342802F61617469722F6765636B6F5F73646B11
S11342902F2F706C6174666F726D2F656D6C69621F
S11342A02F696E632F656D5F6275732E68002F68CA
S11342B06F6D652F61617469722F6765636B6F5FE2
S11342C073646B2F706C6174666F726D2F656D6CA7
S11342D069622F7372632F656D5F75736172742EDB
S11342E06300010304010101090300000B00000045
S11342F00B0000000200000000002020000000006D
S1134300030000008C8C3C00000000000000000052
S1134310000000000126000004000000000000006E
S113432000010000000000002F686F6D652F6161BF
S11343307469722F6765636B6F5F73646B2F706C46
S11343406174666F726D2F736572766963652F6928
S11343506F73747265616D2F7372632F736C5F6911
S11343606F73747265616D5F726574617267657491
S11343705F737464696F2E63002F686F6D652F61BE
S1134380617469722F6765636B6F5F73646B2F7001
S11343906C6174666F726D2F736572766963652FD5
S11343A0696F73747265616D2F7372632F736C5FC1
S11343B0696F73747265616D5F756172742E6300E9
S11343C0232D302B2000686C4C00656667454647FA
S11343D0003031323334353637383941424344457D
S11343E046003031323334353637383961626364EC
S10743F065660000FA
S10B43F4DCBDFF7F01000000A5
S10F43FC08440000001000202100000014
S1134408E8100020C0EA2101C0EA21010080000070
S113441800F04902781400201C100020000000005D
S113442884120020EC120020541300200000000025
S11344380000000000000000000000000000000070
S11344480000000000000000000000000000000060
S11344580000000000000000000000000000000050
S1134468000000000000000000000000030000003D
S113447884120020FFFFFFFF01000000AD010000CF
S107448885010000A6
S9030611E5
